{
  "_format": "hh-sol-artifact-1",
  "contractName": "NFT",
  "sourceName": "contracts/NFT.sol",
  "abi": [
    {
      "inputs": [],
      "stateMutability": "nonpayable",
      "type": "constructor"
    },
    {
      "anonymous": false,
      "inputs": [
        {
          "indexed": false,
          "internalType": "address",
          "name": "previousAdmin",
          "type": "address"
        },
        {
          "indexed": false,
          "internalType": "address",
          "name": "newAdmin",
          "type": "address"
        }
      ],
      "name": "AdminChanged",
      "type": "event"
    },
    {
      "anonymous": false,
      "inputs": [
        {
          "indexed": true,
          "internalType": "address",
          "name": "owner",
          "type": "address"
        },
        {
          "indexed": true,
          "internalType": "address",
          "name": "approved",
          "type": "address"
        },
        {
          "indexed": true,
          "internalType": "uint256",
          "name": "tokenId",
          "type": "uint256"
        }
      ],
      "name": "Approval",
      "type": "event"
    },
    {
      "anonymous": false,
      "inputs": [
        {
          "indexed": true,
          "internalType": "address",
          "name": "owner",
          "type": "address"
        },
        {
          "indexed": true,
          "internalType": "address",
          "name": "operator",
          "type": "address"
        },
        {
          "indexed": false,
          "internalType": "bool",
          "name": "approved",
          "type": "bool"
        }
      ],
      "name": "ApprovalForAll",
      "type": "event"
    },
    {
      "anonymous": false,
      "inputs": [
        {
          "indexed": true,
          "internalType": "address",
          "name": "beacon",
          "type": "address"
        }
      ],
      "name": "BeaconUpgraded",
      "type": "event"
    },
    {
      "anonymous": false,
      "inputs": [
        {
          "indexed": true,
          "internalType": "address",
          "name": "previousOwner",
          "type": "address"
        },
        {
          "indexed": true,
          "internalType": "address",
          "name": "newOwner",
          "type": "address"
        }
      ],
      "name": "OwnershipTransferred",
      "type": "event"
    },
    {
      "anonymous": false,
      "inputs": [
        {
          "indexed": true,
          "internalType": "bytes32",
          "name": "role",
          "type": "bytes32"
        },
        {
          "indexed": true,
          "internalType": "bytes32",
          "name": "previousAdminRole",
          "type": "bytes32"
        },
        {
          "indexed": true,
          "internalType": "bytes32",
          "name": "newAdminRole",
          "type": "bytes32"
        }
      ],
      "name": "RoleAdminChanged",
      "type": "event"
    },
    {
      "anonymous": false,
      "inputs": [
        {
          "indexed": true,
          "internalType": "bytes32",
          "name": "role",
          "type": "bytes32"
        },
        {
          "indexed": true,
          "internalType": "address",
          "name": "account",
          "type": "address"
        },
        {
          "indexed": true,
          "internalType": "address",
          "name": "sender",
          "type": "address"
        }
      ],
      "name": "RoleGranted",
      "type": "event"
    },
    {
      "anonymous": false,
      "inputs": [
        {
          "indexed": true,
          "internalType": "bytes32",
          "name": "role",
          "type": "bytes32"
        },
        {
          "indexed": true,
          "internalType": "address",
          "name": "account",
          "type": "address"
        },
        {
          "indexed": true,
          "internalType": "address",
          "name": "sender",
          "type": "address"
        }
      ],
      "name": "RoleRevoked",
      "type": "event"
    },
    {
      "anonymous": false,
      "inputs": [
        {
          "indexed": true,
          "internalType": "address",
          "name": "from",
          "type": "address"
        },
        {
          "indexed": true,
          "internalType": "address",
          "name": "to",
          "type": "address"
        },
        {
          "indexed": true,
          "internalType": "uint256",
          "name": "tokenId",
          "type": "uint256"
        }
      ],
      "name": "Transfer",
      "type": "event"
    },
    {
      "anonymous": false,
      "inputs": [
        {
          "indexed": true,
          "internalType": "address",
          "name": "implementation",
          "type": "address"
        }
      ],
      "name": "Upgraded",
      "type": "event"
    },
    {
      "inputs": [],
      "name": "DEFAULT_ADMIN_ROLE",
      "outputs": [
        {
          "internalType": "bytes32",
          "name": "",
          "type": "bytes32"
        }
      ],
      "stateMutability": "view",
      "type": "function"
    },
    {
      "inputs": [],
      "name": "MAX_SUPPLY",
      "outputs": [
        {
          "internalType": "uint256",
          "name": "",
          "type": "uint256"
        }
      ],
      "stateMutability": "view",
      "type": "function"
    },
    {
      "inputs": [],
      "name": "MINTER_ROLE",
      "outputs": [
        {
          "internalType": "bytes32",
          "name": "",
          "type": "bytes32"
        }
      ],
      "stateMutability": "view",
      "type": "function"
    },
    {
      "inputs": [
        {
          "internalType": "address",
          "name": "account",
          "type": "address"
        }
      ],
      "name": "addMinter",
      "outputs": [],
      "stateMutability": "nonpayable",
      "type": "function"
    },
    {
      "inputs": [
        {
          "internalType": "address",
          "name": "to",
          "type": "address"
        },
        {
          "internalType": "uint256",
          "name": "tokenId",
          "type": "uint256"
        }
      ],
      "name": "approve",
      "outputs": [],
      "stateMutability": "nonpayable",
      "type": "function"
    },
    {
      "inputs": [
        {
          "internalType": "address",
          "name": "owner",
          "type": "address"
        }
      ],
      "name": "balanceOf",
      "outputs": [
        {
          "internalType": "uint256",
          "name": "",
          "type": "uint256"
        }
      ],
      "stateMutability": "view",
      "type": "function"
    },
    {
      "inputs": [
        {
          "internalType": "uint256",
          "name": "tokenId",
          "type": "uint256"
        }
      ],
      "name": "burn",
      "outputs": [],
      "stateMutability": "nonpayable",
      "type": "function"
    },
    {
      "inputs": [],
      "name": "contractURI",
      "outputs": [
        {
          "internalType": "string",
          "name": "",
          "type": "string"
        }
      ],
      "stateMutability": "view",
      "type": "function"
    },
    {
      "inputs": [
        {
          "internalType": "string",
          "name": "tokenURIHash",
          "type": "string"
        }
      ],
      "name": "createToken",
      "outputs": [
        {
          "internalType": "uint256",
          "name": "",
          "type": "uint256"
        }
      ],
      "stateMutability": "nonpayable",
      "type": "function"
    },
    {
      "inputs": [
        {
          "internalType": "uint256",
          "name": "tokenId",
          "type": "uint256"
        }
      ],
      "name": "getApproved",
      "outputs": [
        {
          "internalType": "address",
          "name": "",
          "type": "address"
        }
      ],
      "stateMutability": "view",
      "type": "function"
    },
    {
      "inputs": [
        {
          "internalType": "bytes32",
          "name": "role",
          "type": "bytes32"
        }
      ],
      "name": "getRoleAdmin",
      "outputs": [
        {
          "internalType": "bytes32",
          "name": "",
          "type": "bytes32"
        }
      ],
      "stateMutability": "view",
      "type": "function"
    },
    {
      "inputs": [
        {
          "internalType": "bytes32",
          "name": "role",
          "type": "bytes32"
        },
        {
          "internalType": "address",
          "name": "account",
          "type": "address"
        }
      ],
      "name": "grantRole",
      "outputs": [],
      "stateMutability": "nonpayable",
      "type": "function"
    },
    {
      "inputs": [
        {
          "internalType": "bytes32",
          "name": "role",
          "type": "bytes32"
        },
        {
          "internalType": "address",
          "name": "account",
          "type": "address"
        }
      ],
      "name": "hasRole",
      "outputs": [
        {
          "internalType": "bool",
          "name": "",
          "type": "bool"
        }
      ],
      "stateMutability": "view",
      "type": "function"
    },
    {
      "inputs": [
        {
          "internalType": "address",
          "name": "marketplaceAddress",
          "type": "address"
        },
        {
          "internalType": "string",
          "name": "name",
          "type": "string"
        },
        {
          "internalType": "string",
          "name": "symbol",
          "type": "string"
        }
      ],
      "name": "initialize",
      "outputs": [],
      "stateMutability": "nonpayable",
      "type": "function"
    },
    {
      "inputs": [
        {
          "internalType": "address",
          "name": "owner",
          "type": "address"
        },
        {
          "internalType": "address",
          "name": "operator",
          "type": "address"
        }
      ],
      "name": "isApprovedForAll",
      "outputs": [
        {
          "internalType": "bool",
          "name": "",
          "type": "bool"
        }
      ],
      "stateMutability": "view",
      "type": "function"
    },
    {
      "inputs": [],
      "name": "name",
      "outputs": [
        {
          "internalType": "string",
          "name": "",
          "type": "string"
        }
      ],
      "stateMutability": "view",
      "type": "function"
    },
    {
      "inputs": [],
      "name": "owner",
      "outputs": [
        {
          "internalType": "address",
          "name": "",
          "type": "address"
        }
      ],
      "stateMutability": "view",
      "type": "function"
    },
    {
      "inputs": [
        {
          "internalType": "uint256",
          "name": "tokenId",
          "type": "uint256"
        }
      ],
      "name": "ownerOf",
      "outputs": [
        {
          "internalType": "address",
          "name": "",
          "type": "address"
        }
      ],
      "stateMutability": "view",
      "type": "function"
    },
    {
      "inputs": [],
      "name": "renounceOwnership",
      "outputs": [],
      "stateMutability": "nonpayable",
      "type": "function"
    },
    {
      "inputs": [
        {
          "internalType": "bytes32",
          "name": "role",
          "type": "bytes32"
        },
        {
          "internalType": "address",
          "name": "account",
          "type": "address"
        }
      ],
      "name": "renounceRole",
      "outputs": [],
      "stateMutability": "nonpayable",
      "type": "function"
    },
    {
      "inputs": [
        {
          "internalType": "bytes32",
          "name": "role",
          "type": "bytes32"
        },
        {
          "internalType": "address",
          "name": "account",
          "type": "address"
        }
      ],
      "name": "revokeRole",
      "outputs": [],
      "stateMutability": "nonpayable",
      "type": "function"
    },
    {
      "inputs": [
        {
          "internalType": "address",
          "name": "from",
          "type": "address"
        },
        {
          "internalType": "address",
          "name": "to",
          "type": "address"
        },
        {
          "internalType": "uint256",
          "name": "tokenId",
          "type": "uint256"
        }
      ],
      "name": "safeTransferFrom",
      "outputs": [],
      "stateMutability": "nonpayable",
      "type": "function"
    },
    {
      "inputs": [
        {
          "internalType": "address",
          "name": "from",
          "type": "address"
        },
        {
          "internalType": "address",
          "name": "to",
          "type": "address"
        },
        {
          "internalType": "uint256",
          "name": "tokenId",
          "type": "uint256"
        },
        {
          "internalType": "bytes",
          "name": "_data",
          "type": "bytes"
        }
      ],
      "name": "safeTransferFrom",
      "outputs": [],
      "stateMutability": "nonpayable",
      "type": "function"
    },
    {
      "inputs": [
        {
          "internalType": "address",
          "name": "operator",
          "type": "address"
        },
        {
          "internalType": "bool",
          "name": "approved",
          "type": "bool"
        }
      ],
      "name": "setApprovalForAll",
      "outputs": [],
      "stateMutability": "nonpayable",
      "type": "function"
    },
    {
      "inputs": [
        {
          "internalType": "string",
          "name": "newContractURIHash",
          "type": "string"
        }
      ],
      "name": "setContractURIHash",
      "outputs": [],
      "stateMutability": "nonpayable",
      "type": "function"
    },
    {
      "inputs": [
        {
          "internalType": "bytes4",
          "name": "interfaceId",
          "type": "bytes4"
        }
      ],
      "name": "supportsInterface",
      "outputs": [
        {
          "internalType": "bool",
          "name": "",
          "type": "bool"
        }
      ],
      "stateMutability": "view",
      "type": "function"
    },
    {
      "inputs": [],
      "name": "symbol",
      "outputs": [
        {
          "internalType": "string",
          "name": "",
          "type": "string"
        }
      ],
      "stateMutability": "view",
      "type": "function"
    },
    {
      "inputs": [
        {
          "internalType": "uint256",
          "name": "index",
          "type": "uint256"
        }
      ],
      "name": "tokenByIndex",
      "outputs": [
        {
          "internalType": "uint256",
          "name": "",
          "type": "uint256"
        }
      ],
      "stateMutability": "view",
      "type": "function"
    },
    {
      "inputs": [
        {
          "internalType": "address",
          "name": "owner",
          "type": "address"
        },
        {
          "internalType": "uint256",
          "name": "index",
          "type": "uint256"
        }
      ],
      "name": "tokenOfOwnerByIndex",
      "outputs": [
        {
          "internalType": "uint256",
          "name": "",
          "type": "uint256"
        }
      ],
      "stateMutability": "view",
      "type": "function"
    },
    {
      "inputs": [
        {
          "internalType": "uint256",
          "name": "tokenId",
          "type": "uint256"
        }
      ],
      "name": "tokenURI",
      "outputs": [
        {
          "internalType": "string",
          "name": "",
          "type": "string"
        }
      ],
      "stateMutability": "view",
      "type": "function"
    },
    {
      "inputs": [
        {
          "internalType": "address",
          "name": "_owner",
          "type": "address"
        }
      ],
      "name": "tokensOfOwner",
      "outputs": [
        {
          "internalType": "uint256[]",
          "name": "ownerTokens",
          "type": "uint256[]"
        }
      ],
      "stateMutability": "view",
      "type": "function"
    },
    {
      "inputs": [],
      "name": "totalSupply",
      "outputs": [
        {
          "internalType": "uint256",
          "name": "",
          "type": "uint256"
        }
      ],
      "stateMutability": "view",
      "type": "function"
    },
    {
      "inputs": [
        {
          "internalType": "address",
          "name": "from",
          "type": "address"
        },
        {
          "internalType": "address",
          "name": "to",
          "type": "address"
        },
        {
          "internalType": "uint256",
          "name": "tokenId",
          "type": "uint256"
        }
      ],
      "name": "transferFrom",
      "outputs": [],
      "stateMutability": "nonpayable",
      "type": "function"
    },
    {
      "inputs": [
        {
          "internalType": "address",
          "name": "newOwner",
          "type": "address"
        }
      ],
      "name": "transferOwnership",
      "outputs": [],
      "stateMutability": "nonpayable",
      "type": "function"
    },
    {
      "inputs": [
        {
          "internalType": "address",
          "name": "newImplementation",
          "type": "address"
        }
      ],
      "name": "upgradeTo",
      "outputs": [],
      "stateMutability": "nonpayable",
      "type": "function"
    },
    {
      "inputs": [
        {
          "internalType": "address",
          "name": "newImplementation",
          "type": "address"
        },
        {
          "internalType": "bytes",
          "name": "data",
          "type": "bytes"
        }
      ],
      "name": "upgradeToAndCall",
      "outputs": [],
      "stateMutability": "payable",
      "type": "function"
    }
  ],
  "bytecode": "0x60a06040523060601b6080523480156200001857600080fd5b50600054610100900460ff16620000365760005460ff161562000040565b62000040620000e5565b620000a85760405162461bcd60e51b815260206004820152602e60248201527f496e697469616c697a61626c653a20636f6e747261637420697320616c72656160448201526d191e481a5b9a5d1a585b1a5e995960921b606482015260840160405180910390fd5b600054610100900460ff16158015620000cb576000805461ffff19166101011790555b8015620000de576000805461ff00191690555b5062000109565b6000620000fd306200010360201b6200134e1760201c565b15905090565b3b151590565b60805160601c6134de6200013d60003960008181610ab401528181610af401528181610cbc0152610cfc01526134de6000f3fe60806040526004361061020f5760003560e01c806370a0823111610118578063a22cb465116100a0578063d53913931161006f578063d53913931461060a578063d547741f1461063e578063e8a3d4851461065e578063e985e9c514610673578063f2fde38b146106bc57600080fd5b8063a22cb4651461058a578063b88d4fde146105aa578063baedc1c4146105ca578063c87b56dd146105ea57600080fd5b806390657147116100e7578063906571471461050057806391d148541461052057806395d89b4114610540578063983b2d5614610555578063a217fddf1461057557600080fd5b806370a082311461047f578063715018a61461049f5780638462151c146104b45780638da5cb5b146104e157600080fd5b806332cb6b0c1161019b57806342966c681161016a57806342966c68146103ec57806345576f941461040c5780634f1ef2861461042c5780634f6ccce71461043f5780636352211e1461045f57600080fd5b806332cb6b0c1461037657806336568abe1461038c5780633659cfe6146103ac57806342842e0e146103cc57600080fd5b806318160ddd116101e257806318160ddd146102c557806323b872dd146102e5578063248a9ca3146103055780632f2ff15d146103365780632f745c591461035657600080fd5b806301ffc9a71461021457806306fdde0314610249578063081812fc1461026b578063095ea7b3146102a3575b600080fd5b34801561022057600080fd5b5061023461022f366004612e92565b6106dc565b60405190151581526020015b60405180910390f35b34801561025557600080fd5b5061025e610707565b604051610240919061314c565b34801561027757600080fd5b5061028b610286366004612e58565b610799565b6040516001600160a01b039091168152602001610240565b3480156102af57600080fd5b506102c36102be366004612e2f565b610826565b005b3480156102d157600080fd5b50610161545b604051908152602001610240565b3480156102f157600080fd5b506102c3610300366004612c97565b61093c565b34801561031157600080fd5b506102d7610320366004612e58565b6000908152610191602052604090206001015490565b34801561034257600080fd5b506102c3610351366004612e70565b61096d565b34801561036257600080fd5b506102d7610371366004612e2f565b610994565b34801561038257600080fd5b506102d7611e6181565b34801561039857600080fd5b506102c36103a7366004612e70565b610a2b565b3480156103b857600080fd5b506102c36103c7366004612c4b565b610aa9565b3480156103d857600080fd5b506102c36103e7366004612c97565b610b72565b3480156103f857600080fd5b506102c3610407366004612e58565b610b8d565b34801561041857600080fd5b506102d7610427366004612eca565b610bec565b6102c361043a366004612d72565b610cb1565b34801561044b57600080fd5b506102d761045a366004612e58565b610d67565b34801561046b57600080fd5b5061028b61047a366004612e58565b610e0a565b34801561048b57600080fd5b506102d761049a366004612c4b565b610e81565b3480156104ab57600080fd5b506102c3610f08565b3480156104c057600080fd5b506104d46104cf366004612c4b565b610f3f565b6040516102409190613108565b3480156104ed57600080fd5b5061012d546001600160a01b031661028b565b34801561050c57600080fd5b506102c361051b366004612dbe565b611019565b34801561052c57600080fd5b5061023461053b366004612e70565b61114e565b34801561054c57600080fd5b5061025e61117a565b34801561056157600080fd5b506102c3610570366004612c4b565b611189565b34801561058157600080fd5b506102d7600081565b34801561059657600080fd5b506102c36105a5366004612d38565b6111de565b3480156105b657600080fd5b506102c36105c5366004612cd2565b6111e9565b3480156105d657600080fd5b506102c36105e5366004612eca565b61121b565b3480156105f657600080fd5b5061025e610605366004612e58565b61125a565b34801561061657600080fd5b506102d77f9f2df0fed2c77648de5860a4cc508cd0818c85b8b8a1ab4ceeef8d981c8956a681565b34801561064a57600080fd5b506102c3610659366004612e70565b611265565b34801561066a57600080fd5b5061025e61128c565b34801561067f57600080fd5b5061023461068e366004612c65565b6001600160a01b039182166000908152606a6020908152604080832093909416825291909152205460ff1690565b3480156106c857600080fd5b506102c36106d7366004612c4b565b6112b5565b60006001600160e01b0319821663152a902d60e11b1480610701575061070182611354565b92915050565b606060658054610716906133bf565b80601f0160208091040260200160405190810160405280929190818152602001828054610742906133bf565b801561078f5780601f106107645761010080835404028352916020019161078f565b820191906000526020600020905b81548152906001019060200180831161077257829003601f168201915b5050505050905090565b60006107a482611379565b61080a5760405162461bcd60e51b815260206004820152602c60248201527f4552433732313a20617070726f76656420717565727920666f72206e6f6e657860448201526b34b9ba32b73a103a37b5b2b760a11b60648201526084015b60405180910390fd5b506000908152606960205260409020546001600160a01b031690565b600061083182610e0a565b9050806001600160a01b0316836001600160a01b0316141561089f5760405162461bcd60e51b815260206004820152602160248201527f4552433732313a20617070726f76616c20746f2063757272656e74206f776e656044820152603960f91b6064820152608401610801565b336001600160a01b03821614806108bb57506108bb813361068e565b61092d5760405162461bcd60e51b815260206004820152603860248201527f4552433732313a20617070726f76652063616c6c6572206973206e6f74206f7760448201527f6e6572206e6f7220617070726f76656420666f7220616c6c00000000000000006064820152608401610801565b6109378383611396565b505050565b6109463382611404565b6109625760405162461bcd60e51b81526004016108019061327e565b6109378383836114ee565b6000828152610191602052604090206001015461098a8133611699565b61093783836116fd565b600061099f83610e81565b8210610a015760405162461bcd60e51b815260206004820152602b60248201527f455243373231456e756d657261626c653a206f776e657220696e646578206f7560448201526a74206f6620626f756e647360a81b6064820152608401610801565b506001600160a01b0391909116600090815261015f60209081526040808320938352929052205490565b6001600160a01b0381163314610a9b5760405162461bcd60e51b815260206004820152602f60248201527f416363657373436f6e74726f6c3a2063616e206f6e6c792072656e6f756e636560448201526e103937b632b9903337b91039b2b63360891b6064820152608401610801565b610aa58282611784565b5050565b306001600160a01b037f0000000000000000000000000000000000000000000000000000000000000000161415610af25760405162461bcd60e51b8152600401610801906131b1565b7f00000000000000000000000000000000000000000000000000000000000000006001600160a01b0316610b246117ec565b6001600160a01b031614610b4a5760405162461bcd60e51b8152600401610801906131fd565b610b538161181a565b60408051600080825260208201909252610b6f91839190611845565b50565b610937838383604051806020016040528060008152506111e9565b33610b9782610e0a565b6001600160a01b031614610be35760405162461bcd60e51b815260206004820152601360248201527221b0b63632b91034b9903737ba1027bbb732b960691b6044820152606401610801565b610b6f81611990565b6000611e61610bfb6101615490565b1115610c3d5760405162461bcd60e51b8152602060048201526011602482015270105b1b081d1bdad95b9cc81b5a5b9d1959607a1b6044820152606401610801565b610c4c6101c380546001019055565b6000610c586101c35490565b9050610c643382611999565b600083604051602001610c779190612f74565b6040516020818303038152906040529050610c9282826119b3565b6101c554610caa906001600160a01b031660016111de565b5092915050565b306001600160a01b037f0000000000000000000000000000000000000000000000000000000000000000161415610cfa5760405162461bcd60e51b8152600401610801906131b1565b7f00000000000000000000000000000000000000000000000000000000000000006001600160a01b0316610d2c6117ec565b6001600160a01b031614610d525760405162461bcd60e51b8152600401610801906131fd565b610d5b8261181a565b610aa582826001611845565b6000610d736101615490565b8210610dd65760405162461bcd60e51b815260206004820152602c60248201527f455243373231456e756d657261626c653a20676c6f62616c20696e646578206f60448201526b7574206f6620626f756e647360a01b6064820152608401610801565b6101618281548110610df857634e487b7160e01b600052603260045260246000fd5b90600052602060002001549050919050565b6000818152606760205260408120546001600160a01b0316806107015760405162461bcd60e51b815260206004820152602960248201527f4552433732313a206f776e657220717565727920666f72206e6f6e657869737460448201526832b73a103a37b5b2b760b91b6064820152608401610801565b60006001600160a01b038216610eec5760405162461bcd60e51b815260206004820152602a60248201527f4552433732313a2062616c616e636520717565727920666f7220746865207a65604482015269726f206164647265737360b01b6064820152608401610801565b506001600160a01b031660009081526068602052604090205490565b61012d546001600160a01b03163314610f335760405162461bcd60e51b815260040161080190613249565b610f3d6000611a3e565b565b60606000610f4c83610e81565b905060008167ffffffffffffffff811115610f7757634e487b7160e01b600052604160045260246000fd5b604051908082528060200260200182016040528015610fa0578160200160208202803683370190505b50905081610fbf57505060408051600081526020810190915292915050565b60005b8281101561101157610fd48582610994565b828281518110610ff457634e487b7160e01b600052603260045260246000fd5b602090810291909101015280611009816133fa565b915050610fc2565b509392505050565b600054610100900460ff166110345760005460ff1615611038565b303b155b61109b5760405162461bcd60e51b815260206004820152602e60248201527f496e697469616c697a61626c653a20636f6e747261637420697320616c72656160448201526d191e481a5b9a5d1a585b1a5e995960921b6064820152608401610801565b600054610100900460ff161580156110bd576000805461ffff19166101011790555b6110c78383611a91565b6110cf611ad2565b6110d7611ad2565b6110df611b11565b6110e7611b48565b6101c580546001600160a01b0319166001600160a01b03861617905561110b611ad2565b611116600033611b6f565b604080516020810191829052600090819052611135916101c491612ad9565b508015611148576000805461ff00191690555b50505050565b6000918252610191602090815260408084206001600160a01b0393909316845291905290205460ff1690565b606060668054610716906133bf565b61012d546001600160a01b031633146111b45760405162461bcd60e51b815260040161080190613249565b610b6f7f9f2df0fed2c77648de5860a4cc508cd0818c85b8b8a1ab4ceeef8d981c8956a68261096d565b610aa5338383611b79565b6111f33383611404565b61120f5760405162461bcd60e51b81526004016108019061327e565b61114884848484611c48565b61012d546001600160a01b031633146112465760405162461bcd60e51b815260040161080190613249565b8051610aa5906101c4906020840190612ad9565b606061070182611c7b565b600082815261019160205260409020600101546112828133611699565b6109378383611784565b60606101c46040516020016112a19190612fa3565b604051602081830303815290604052905090565b61012d546001600160a01b031633146112e05760405162461bcd60e51b815260040161080190613249565b6001600160a01b0381166113455760405162461bcd60e51b815260206004820152602660248201527f4f776e61626c653a206e6577206f776e657220697320746865207a65726f206160448201526564647265737360d01b6064820152608401610801565b610b6f81611a3e565b3b151590565b60006001600160e01b03198216637965db0b60e01b1480610701575061070182611dea565b6000908152606760205260409020546001600160a01b0316151590565b600081815260696020526040902080546001600160a01b0319166001600160a01b03841690811790915581906113cb82610e0a565b6001600160a01b03167f8c5be1e5ebec7d5bd14f71427d1e84f3dd0314c0f7b2291e5b200ac8c7c3b92560405160405180910390a45050565b600061140f82611379565b6114705760405162461bcd60e51b815260206004820152602c60248201527f4552433732313a206f70657261746f7220717565727920666f72206e6f6e657860448201526b34b9ba32b73a103a37b5b2b760a11b6064820152608401610801565b600061147b83610e0a565b9050806001600160a01b0316846001600160a01b031614806114b65750836001600160a01b03166114ab84610799565b6001600160a01b0316145b806114e657506001600160a01b038082166000908152606a602090815260408083209388168352929052205460ff165b949350505050565b826001600160a01b031661150182610e0a565b6001600160a01b0316146115695760405162461bcd60e51b815260206004820152602960248201527f4552433732313a207472616e73666572206f6620746f6b656e2074686174206960448201526839903737ba1037bbb760b91b6064820152608401610801565b6001600160a01b0382166115cb5760405162461bcd60e51b8152602060048201526024808201527f4552433732313a207472616e7366657220746f20746865207a65726f206164646044820152637265737360e01b6064820152608401610801565b6115d6838383611e0f565b6115e1600082611396565b6001600160a01b038316600090815260686020526040812080546001929061160a908490613365565b90915550506001600160a01b038216600090815260686020526040812080546001929061163890849061331a565b909155505060008181526067602052604080822080546001600160a01b0319166001600160a01b0386811691821790925591518493918716917fddf252ad1be2c89b69c2b068fc378daa952ba7f163c4a11628f55a4df523b3ef91a4505050565b6116a3828261114e565b610aa5576116bb816001600160a01b03166014611e1a565b6116c6836020611e1a565b6040516020016116d7929190613056565b60408051601f198184030181529082905262461bcd60e51b82526108019160040161314c565b611707828261114e565b610aa5576000828152610191602090815260408083206001600160a01b03851684529091529020805460ff191660011790556117403390565b6001600160a01b0316816001600160a01b0316837f2f8788117e7eff1d82e926ec794901d17c78024a50270940304540a733656f0d60405160405180910390a45050565b61178e828261114e565b15610aa5576000828152610191602090815260408083206001600160a01b0385168085529252808320805460ff1916905551339285917ff6391f5c32d9c69d2a47ea670b442974b53935d1edc7fd64eb21e047a839171b9190a45050565b7f360894a13ba1a3210667c828492db98dca3e2076cc3735a920a3ca505d382bbc546001600160a01b031690565b61012d546001600160a01b03163314610b6f5760405162461bcd60e51b815260040161080190613249565b600061184f6117ec565b905061185a84612003565b6000835111806118675750815b156118785761187684846120a8565b505b7f4910fdfa16fed3260ed0e7147f7cc6da11a60208b5b9406d12a635614ffd9143805460ff1661198957805460ff191660011781556040516001600160a01b03831660248201526118f790869060440160408051601f198184030181529190526020810180516001600160e01b0316631b2ce7f360e11b1790526120a8565b50805460ff191681556119086117ec565b6001600160a01b0316826001600160a01b0316146119805760405162461bcd60e51b815260206004820152602f60248201527f45524331393637557067726164653a207570677261646520627265616b73206660448201526e75727468657220757067726164657360881b6064820152608401610801565b61198985612193565b5050505050565b610b6f816121d3565b610aa5828260405180602001604052806000815250612213565b6119bc82611379565b611a1f5760405162461bcd60e51b815260206004820152602e60248201527f45524337323155524953746f726167653a2055524920736574206f66206e6f6e60448201526d32bc34b9ba32b73a103a37b5b2b760911b6064820152608401610801565b6000828152609760209081526040909120825161093792840190612ad9565b61012d80546001600160a01b038381166001600160a01b0319831681179093556040519116919082907f8be0079c531659141344cd1fd0a4f28419497f9722a3daafe3b4186f6b6457e090600090a35050565b600054610100900460ff16611ab85760405162461bcd60e51b8152600401610801906132cf565b611ac0612246565b611ac8612246565b610aa5828261226d565b600054610100900460ff16611af95760405162461bcd60e51b8152600401610801906132cf565b611b01612246565b611b09612246565b610f3d612246565b600054610100900460ff16611b385760405162461bcd60e51b8152600401610801906132cf565b611b40612246565b610f3d6122bb565b600054610100900460ff16611b015760405162461bcd60e51b8152600401610801906132cf565b610aa582826116fd565b816001600160a01b0316836001600160a01b03161415611bdb5760405162461bcd60e51b815260206004820152601960248201527f4552433732313a20617070726f766520746f2063616c6c6572000000000000006044820152606401610801565b6001600160a01b038381166000818152606a6020908152604080832094871680845294825291829020805460ff191686151590811790915591519182527f17307eab39ab6107e8899845ad3d59bd9653f200f220920489ca2b5937696c31910160405180910390a3505050565b611c538484846114ee565b611c5f848484846122eb565b6111485760405162461bcd60e51b81526004016108019061315f565b6060611c8682611379565b611cec5760405162461bcd60e51b815260206004820152603160248201527f45524337323155524953746f726167653a2055524920717565727920666f72206044820152703737b732bc34b9ba32b73a103a37b5b2b760791b6064820152608401610801565b60008281526097602052604081208054611d05906133bf565b80601f0160208091040260200160405190810160405280929190818152602001828054611d31906133bf565b8015611d7e5780601f10611d5357610100808354040283529160200191611d7e565b820191906000526020600020905b815481529060010190602001808311611d6157829003601f168201915b505050505090506000611d9c60408051602081019091526000815290565b9050805160001415611daf575092915050565b815115611de1578082604051602001611dc9929190612f45565b60405160208183030381529060405292505050919050565b6114e6846123f8565b60006001600160e01b0319821663780e9d6360e01b14806107015750610701826124cf565b61093783838361251f565b60606000611e29836002613346565b611e3490600261331a565b67ffffffffffffffff811115611e5a57634e487b7160e01b600052604160045260246000fd5b6040519080825280601f01601f191660200182016040528015611e84576020820181803683370190505b509050600360fc1b81600081518110611ead57634e487b7160e01b600052603260045260246000fd5b60200101906001600160f81b031916908160001a905350600f60fb1b81600181518110611eea57634e487b7160e01b600052603260045260246000fd5b60200101906001600160f81b031916908160001a9053506000611f0e846002613346565b611f1990600161331a565b90505b6001811115611fad576f181899199a1a9b1b9c1cb0b131b232b360811b85600f1660108110611f5b57634e487b7160e01b600052603260045260246000fd5b1a60f81b828281518110611f7f57634e487b7160e01b600052603260045260246000fd5b60200101906001600160f81b031916908160001a90535060049490941c93611fa6816133a8565b9050611f1c565b508315611ffc5760405162461bcd60e51b815260206004820181905260248201527f537472696e67733a20686578206c656e67746820696e73756666696369656e746044820152606401610801565b9392505050565b803b6120675760405162461bcd60e51b815260206004820152602d60248201527f455243313936373a206e657720696d706c656d656e746174696f6e206973206e60448201526c1bdd08184818dbdb9d1c9858dd609a1b6064820152608401610801565b7f360894a13ba1a3210667c828492db98dca3e2076cc3735a920a3ca505d382bbc80546001600160a01b0319166001600160a01b0392909216919091179055565b6060823b6121075760405162461bcd60e51b815260206004820152602660248201527f416464726573733a2064656c65676174652063616c6c20746f206e6f6e2d636f6044820152651b9d1c9858dd60d21b6064820152608401610801565b600080846001600160a01b0316846040516121229190612f29565b600060405180830381855af49150503d806000811461215d576040519150601f19603f3d011682016040523d82523d6000602084013e612162565b606091505b509150915061218a8282604051806060016040528060278152602001613482602791396125d9565b95945050505050565b61219c81612003565b6040516001600160a01b038216907fbc7cd75a20ee27fd9adebab32041f755214dbc6bffa90cc0225b39da2e5c2d3b90600090a250565b6121dc81612612565b600081815260976020526040902080546121f5906133bf565b159050610b6f576000818152609760205260408120610b6f91612b5d565b61221d83836126b9565b61222a60008484846122eb565b6109375760405162461bcd60e51b81526004016108019061315f565b600054610100900460ff16610f3d5760405162461bcd60e51b8152600401610801906132cf565b600054610100900460ff166122945760405162461bcd60e51b8152600401610801906132cf565b81516122a7906065906020850190612ad9565b508051610937906066906020840190612ad9565b600054610100900460ff166122e25760405162461bcd60e51b8152600401610801906132cf565b610f3d33611a3e565b60006001600160a01b0384163b156123ed57604051630a85bd0160e11b81526001600160a01b0385169063150b7a029061232f9033908990889088906004016130cb565b602060405180830381600087803b15801561234957600080fd5b505af1925050508015612379575060408051601f3d908101601f1916820190925261237691810190612eae565b60015b6123d3573d8080156123a7576040519150601f19603f3d011682016040523d82523d6000602084013e6123ac565b606091505b5080516123cb5760405162461bcd60e51b81526004016108019061315f565b805181602001fd5b6001600160e01b031916630a85bd0160e11b1490506114e6565b506001949350505050565b606061240382611379565b6124675760405162461bcd60e51b815260206004820152602f60248201527f4552433732314d657461646174613a2055524920717565727920666f72206e6f60448201526e3732bc34b9ba32b73a103a37b5b2b760891b6064820152608401610801565b600061247e60408051602081019091526000815290565b9050600081511161249e5760405180602001604052806000815250611ffc565b806124a8846127f8565b6040516020016124b9929190612f45565b6040516020818303038152906040529392505050565b60006001600160e01b031982166380ac58cd60e01b148061250057506001600160e01b03198216635b5e139f60e01b145b8061070157506301ffc9a760e01b6001600160e01b0319831614610701565b6001600160a01b03831661257c57612577816101618054600083815261016260205260408120829055600182018355919091527fafbb1c043347995df017ce3291b765e028ad5f784d2aa00c3f5e073760a4de8b0155565b61259f565b816001600160a01b0316836001600160a01b03161461259f5761259f8382612912565b6001600160a01b0382166125b657610937816129b4565b826001600160a01b0316826001600160a01b031614610937576109378282612a93565b606083156125e8575081611ffc565b8251156125f85782518084602001fd5b8160405162461bcd60e51b8152600401610801919061314c565b600061261d82610e0a565b905061262b81600084611e0f565b612636600083611396565b6001600160a01b038116600090815260686020526040812080546001929061265f908490613365565b909155505060008281526067602052604080822080546001600160a01b0319169055518391906001600160a01b038416907fddf252ad1be2c89b69c2b068fc378daa952ba7f163c4a11628f55a4df523b3ef908390a45050565b6001600160a01b03821661270f5760405162461bcd60e51b815260206004820181905260248201527f4552433732313a206d696e7420746f20746865207a65726f20616464726573736044820152606401610801565b61271881611379565b156127655760405162461bcd60e51b815260206004820152601c60248201527f4552433732313a20746f6b656e20616c7265616479206d696e746564000000006044820152606401610801565b61277160008383611e0f565b6001600160a01b038216600090815260686020526040812080546001929061279a90849061331a565b909155505060008181526067602052604080822080546001600160a01b0319166001600160a01b03861690811790915590518392907fddf252ad1be2c89b69c2b068fc378daa952ba7f163c4a11628f55a4df523b3ef908290a45050565b60608161281c5750506040805180820190915260018152600360fc1b602082015290565b8160005b81156128465780612830816133fa565b915061283f9050600a83613332565b9150612820565b60008167ffffffffffffffff81111561286f57634e487b7160e01b600052604160045260246000fd5b6040519080825280601f01601f191660200182016040528015612899576020820181803683370190505b5090505b84156114e6576128ae600183613365565b91506128bb600a86613415565b6128c690603061331a565b60f81b8183815181106128e957634e487b7160e01b600052603260045260246000fd5b60200101906001600160f81b031916908160001a90535061290b600a86613332565b945061289d565b6000600161291f84610e81565b6129299190613365565b6000838152610160602052604090205490915080821461297f576001600160a01b038416600090815261015f60209081526040808320858452825280832054848452818420819055835261016090915290208190555b506000918252610160602090815260408084208490556001600160a01b03909416835261015f81528383209183525290812055565b610161546000906129c790600190613365565b6000838152610162602052604081205461016180549394509092849081106129ff57634e487b7160e01b600052603260045260246000fd5b90600052602060002001549050806101618381548110612a2f57634e487b7160e01b600052603260045260246000fd5b60009182526020808320909101929092558281526101629091526040808220849055858252812055610161805480612a7757634e487b7160e01b600052603160045260246000fd5b6001900381819060005260206000200160009055905550505050565b6000612a9e83610e81565b6001600160a01b03909316600090815261015f6020908152604080832086845282528083208590559382526101609052919091209190915550565b828054612ae5906133bf565b90600052602060002090601f016020900481019282612b075760008555612b4d565b82601f10612b2057805160ff1916838001178555612b4d565b82800160010185558215612b4d579182015b82811115612b4d578251825591602001919060010190612b32565b50612b59929150612b93565b5090565b508054612b69906133bf565b6000825580601f10612b79575050565b601f016020900490600052602060002090810190610b6f91905b5b80821115612b595760008155600101612b94565b80356001600160a01b0381168114612bbf57600080fd5b919050565b600082601f830112612bd4578081fd5b813567ffffffffffffffff80821115612bef57612bef613455565b604051601f8301601f19908116603f01168101908282118183101715612c1757612c17613455565b81604052838152866020858801011115612c2f578485fd5b8360208701602083013792830160200193909352509392505050565b600060208284031215612c5c578081fd5b611ffc82612ba8565b60008060408385031215612c77578081fd5b612c8083612ba8565b9150612c8e60208401612ba8565b90509250929050565b600080600060608486031215612cab578081fd5b612cb484612ba8565b9250612cc260208501612ba8565b9150604084013590509250925092565b60008060008060808587031215612ce7578081fd5b612cf085612ba8565b9350612cfe60208601612ba8565b925060408501359150606085013567ffffffffffffffff811115612d20578182fd5b612d2c87828801612bc4565b91505092959194509250565b60008060408385031215612d4a578182fd5b612d5383612ba8565b915060208301358015158114612d67578182fd5b809150509250929050565b60008060408385031215612d84578182fd5b612d8d83612ba8565b9150602083013567ffffffffffffffff811115612da8578182fd5b612db485828601612bc4565b9150509250929050565b600080600060608486031215612dd2578283fd5b612ddb84612ba8565b9250602084013567ffffffffffffffff80821115612df7578384fd5b612e0387838801612bc4565b93506040860135915080821115612e18578283fd5b50612e2586828701612bc4565b9150509250925092565b60008060408385031215612e41578182fd5b612e4a83612ba8565b946020939093013593505050565b600060208284031215612e69578081fd5b5035919050565b60008060408385031215612e82578182fd5b82359150612c8e60208401612ba8565b600060208284031215612ea3578081fd5b8135611ffc8161346b565b600060208284031215612ebf578081fd5b8151611ffc8161346b565b600060208284031215612edb578081fd5b813567ffffffffffffffff811115612ef1578182fd5b6114e684828501612bc4565b60008151808452612f1581602086016020860161337c565b601f01601f19169290920160200192915050565b60008251612f3b81846020870161337c565b9190910192915050565b60008351612f5781846020880161337c565b835190830190612f6b81836020880161337c565b01949350505050565b66697066733a2f2f60c81b815260008251612f9681600785016020870161337c565b9190910160070192915050565b66697066733a2f2f60c81b81526000600781845483600182811c915080831680612fce57607f831692505b6020808410821415612fee57634e487b7160e01b88526022600452602488fd5b818015613002576001811461301757613047565b60ff1986168a890152848a0188019650613047565b60008b815260209020895b8681101561303d5781548c82018b0152908501908301613022565b505087858b010196505b50949998505050505050505050565b7f416363657373436f6e74726f6c3a206163636f756e742000000000000000000081526000835161308e81601785016020880161337c565b7001034b99036b4b9b9b4b733903937b6329607d1b60179184019182015283516130bf81602884016020880161337c565b01602801949350505050565b6001600160a01b03858116825284166020820152604081018390526080606082018190526000906130fe90830184612efd565b9695505050505050565b6020808252825182820181905260009190848201906040850190845b8181101561314057835183529284019291840191600101613124565b50909695505050505050565b602081526000611ffc6020830184612efd565b60208082526032908201527f4552433732313a207472616e7366657220746f206e6f6e20455243373231526560408201527131b2b4bb32b91034b6b83632b6b2b73a32b960711b606082015260800190565b6020808252602c908201527f46756e6374696f6e206d7573742062652063616c6c6564207468726f7567682060408201526b19195b1959d85d1958d85b1b60a21b606082015260800190565b6020808252602c908201527f46756e6374696f6e206d7573742062652063616c6c6564207468726f7567682060408201526b6163746976652070726f787960a01b606082015260800190565b6020808252818101527f4f776e61626c653a2063616c6c6572206973206e6f7420746865206f776e6572604082015260600190565b60208082526031908201527f4552433732313a207472616e736665722063616c6c6572206973206e6f74206f6040820152701ddb995c881b9bdc88185c1c1c9bdd9959607a1b606082015260800190565b6020808252602b908201527f496e697469616c697a61626c653a20636f6e7472616374206973206e6f74206960408201526a6e697469616c697a696e6760a81b606082015260800190565b6000821982111561332d5761332d613429565b500190565b6000826133415761334161343f565b500490565b600081600019048311821515161561336057613360613429565b500290565b60008282101561337757613377613429565b500390565b60005b8381101561339757818101518382015260200161337f565b838111156111485750506000910152565b6000816133b7576133b7613429565b506000190190565b600181811c908216806133d357607f821691505b602082108114156133f457634e487b7160e01b600052602260045260246000fd5b50919050565b600060001982141561340e5761340e613429565b5060010190565b6000826134245761342461343f565b500690565b634e487b7160e01b600052601160045260246000fd5b634e487b7160e01b600052601260045260246000fd5b634e487b7160e01b600052604160045260246000fd5b6001600160e01b031981168114610b6f57600080fdfe416464726573733a206c6f772d6c6576656c2064656c65676174652063616c6c206661696c6564a264697066735822122073e98eebb1edbab476867ceb170e30d0a6ea7e10218ff766a7f8bbee545b6dd864736f6c63430008040033",
  "linkReferences": {},
  "deployedLinkReferences": {}
}