{
  "_format": "hh-sol-artifact-1",
  "contractName": "FireFarm",
  "sourceName": "contracts/FireFarm.sol",
  "abi": [
    {
      "inputs": [
        {
          "internalType": "contract DappToken",
          "name": "_dappToken",
          "type": "address"
        },
        {
          "internalType": "contract DaiToken",
          "name": "_daiToken",
          "type": "address"
        }
      ],
      "stateMutability": "nonpayable",
      "type": "constructor"
    },
    {
      "inputs": [],
      "name": "daiToken",
      "outputs": [
        {
          "internalType": "contract DaiToken",
          "name": "",
          "type": "address"
        }
      ],
      "stateMutability": "view",
      "type": "function"
    },
    {
      "inputs": [],
      "name": "dappToken",
      "outputs": [
        {
          "internalType": "contract DappToken",
          "name": "",
          "type": "address"
        }
      ],
      "stateMutability": "view",
      "type": "function"
    },
    {
      "inputs": [
        {
          "internalType": "address",
          "name": "",
          "type": "address"
        }
      ],
      "name": "hasStaked",
      "outputs": [
        {
          "internalType": "bool",
          "name": "",
          "type": "bool"
        }
      ],
      "stateMutability": "view",
      "type": "function"
    },
    {
      "inputs": [
        {
          "internalType": "address",
          "name": "",
          "type": "address"
        }
      ],
      "name": "isStaking",
      "outputs": [
        {
          "internalType": "bool",
          "name": "",
          "type": "bool"
        }
      ],
      "stateMutability": "view",
      "type": "function"
    },
    {
      "inputs": [],
      "name": "issueTokens",
      "outputs": [],
      "stateMutability": "nonpayable",
      "type": "function"
    },
    {
      "inputs": [],
      "name": "name",
      "outputs": [
        {
          "internalType": "string",
          "name": "",
          "type": "string"
        }
      ],
      "stateMutability": "view",
      "type": "function"
    },
    {
      "inputs": [],
      "name": "owner",
      "outputs": [
        {
          "internalType": "address",
          "name": "",
          "type": "address"
        }
      ],
      "stateMutability": "view",
      "type": "function"
    },
    {
      "inputs": [
        {
          "internalType": "uint256",
          "name": "_amount",
          "type": "uint256"
        }
      ],
      "name": "stakeTokens",
      "outputs": [],
      "stateMutability": "nonpayable",
      "type": "function"
    },
    {
      "inputs": [
        {
          "internalType": "uint256",
          "name": "",
          "type": "uint256"
        }
      ],
      "name": "stakers",
      "outputs": [
        {
          "internalType": "address",
          "name": "",
          "type": "address"
        }
      ],
      "stateMutability": "view",
      "type": "function"
    },
    {
      "inputs": [
        {
          "internalType": "address",
          "name": "",
          "type": "address"
        }
      ],
      "name": "stakingBalance",
      "outputs": [
        {
          "internalType": "uint256",
          "name": "",
          "type": "uint256"
        }
      ],
      "stateMutability": "view",
      "type": "function"
    },
    {
      "inputs": [],
      "name": "unstakeTokens",
      "outputs": [],
      "stateMutability": "nonpayable",
      "type": "function"
    }
  ],
  "bytecode": "0x60c0604052600960808190526804649524520446170760bc1b60a090815261002a9160009190610097565b5034801561003757600080fd5b506040516109bb3803806109bb83398101604081905261005691610130565b600280546001600160a01b039384166001600160a01b03199182161790915560038054929093169181169190911790915560018054909116331790556101bc565b8280546100a390610169565b90600052602060002090601f0160209004810192826100c5576000855561010b565b82601f106100de57805160ff191683800117855561010b565b8280016001018555821561010b579182015b8281111561010b5782518255916020019190600101906100f0565b5061011792915061011b565b5090565b5b80821115610117576000815560010161011c565b60008060408385031215610142578182fd5b825161014d816101a4565b602084015190925061015e816101a4565b809150509250929050565b600181811c9082168061017d57607f821691505b6020821081141561019e57634e487b7160e01b600052602260045260246000fd5b50919050565b6001600160a01b03811681146101b957600080fd5b50565b6107f0806101cb6000396000f3fe608060405234801561001057600080fd5b50600436106100a95760003560e01c80637547c7a3116100715780637547c7a3146101625780638da5cb5b14610175578063a5ce413b14610188578063be22f54614610190578063c93c8f34146101a3578063fd5e6dd1146101c657600080fd5b806306fdde03146100ae57806345bc78ab146100cc5780635eb186f8146100fa57806360ab5852146101255780636f49712b1461012f575b600080fd5b6100b66101d9565b6040516100c391906106e3565b60405180910390f35b6100ec6100da36600461067d565b60056020526000908152604090205481565b6040519081526020016100c3565b60025461010d906001600160a01b031681565b6040516001600160a01b0390911681526020016100c3565b61012d610267565b005b61015261013d36600461067d565b60076020526000908152604090205460ff1681565b60405190151581526020016100c3565b61012d6101703660046106cb565b6103c4565b60015461010d906001600160a01b031681565b61012d61054a565b60035461010d906001600160a01b031681565b6101526101b136600461067d565b60066020526000908152604090205460ff1681565b61010d6101d43660046106cb565b610653565b600080546101e69061074e565b80601f01602080910402602001604051908101604052809291908181526020018280546102129061074e565b801561025f5780601f106102345761010080835404028352916020019161025f565b820191906000526020600020905b81548152906001019060200180831161024257829003601f168201915b505050505081565b6001546001600160a01b031633146102c65760405162461bcd60e51b815260206004820152601860248201527f63616c6c6572206d75737420626520746865206f776e6572000000000000000060448201526064015b60405180910390fd5b60005b6004548110156103c1576000600482815481106102f657634e487b7160e01b600052603260045260246000fd5b60009182526020808320909101546001600160a01b0316808352600590915260409091205490915080156103ac5760025460405163a9059cbb60e01b81526001600160a01b038481166004830152602482018490529091169063a9059cbb90604401602060405180830381600087803b15801561037257600080fd5b505af1158015610386573d6000803e3d6000fd5b505050506040513d601f19601f820116820180604052508101906103aa91906106ab565b505b505080806103b990610789565b9150506102c9565b50565b600081116104095760405162461bcd60e51b81526020600482015260126024820152710616d6f756e742063616e6e6f7420626520360741b60448201526064016102bd565b6003546040516323b872dd60e01b8152336004820152306024820152604481018390526001600160a01b03909116906323b872dd90606401602060405180830381600087803b15801561045b57600080fd5b505af115801561046f573d6000803e3d6000fd5b505050506040513d601f19601f8201168201806040525081019061049391906106ab565b50336000908152600560205260409020546104af908290610736565b3360009081526005602090815260408083209390935560069052205460ff1661051557600480546001810182556000919091527f8a35acfbc15ff81a39ae7d344fd709f28e8600b4aa8c65c6b64bfe7fe36bd19b0180546001600160a01b031916331790555b503360009081526007602090815260408083208054600160ff1991821681179092556006909352922080549091169091179055565b33600090815260056020526040902054806105a75760405162461bcd60e51b815260206004820152601b60248201527f7374616b696e672062616c616e63652063616e6e6f742062652030000000000060448201526064016102bd565b60035460405163a9059cbb60e01b8152336004820152602481018390526001600160a01b039091169063a9059cbb90604401602060405180830381600087803b1580156105f357600080fd5b505af1158015610607573d6000803e3d6000fd5b505050506040513d601f19601f8201168201806040525081019061062b91906106ab565b505033600090815260056020908152604080832083905560079091529020805460ff19169055565b6004818154811061066357600080fd5b6000918252602090912001546001600160a01b0316905081565b60006020828403121561068e578081fd5b81356001600160a01b03811681146106a4578182fd5b9392505050565b6000602082840312156106bc578081fd5b815180151581146106a4578182fd5b6000602082840312156106dc578081fd5b5035919050565b6000602080835283518082850152825b8181101561070f578581018301518582016040015282016106f3565b818111156107205783604083870101525b50601f01601f1916929092016040019392505050565b60008219821115610749576107496107a4565b500190565b600181811c9082168061076257607f821691505b6020821081141561078357634e487b7160e01b600052602260045260246000fd5b50919050565b600060001982141561079d5761079d6107a4565b5060010190565b634e487b7160e01b600052601160045260246000fdfea2646970667358221220d20f6f51709b45d09cc3a8a4fff078a7d4228ecde58eb0425ec6f857e64c79f764736f6c63430008040033",
  "linkReferences": {},
  "deployedLinkReferences": {}
}