{
  "_format": "hh-sol-artifact-1",
  "contractName": "NFTMarket",
  "sourceName": "contracts/Market.sol",
  "abi": [
    {
      "inputs": [],
      "stateMutability": "nonpayable",
      "type": "constructor"
    },
    {
      "anonymous": false,
      "inputs": [
        {
          "indexed": false,
          "internalType": "address",
          "name": "previousAdmin",
          "type": "address"
        },
        {
          "indexed": false,
          "internalType": "address",
          "name": "newAdmin",
          "type": "address"
        }
      ],
      "name": "AdminChanged",
      "type": "event"
    },
    {
      "anonymous": false,
      "inputs": [
        {
          "indexed": true,
          "internalType": "address",
          "name": "beacon",
          "type": "address"
        }
      ],
      "name": "BeaconUpgraded",
      "type": "event"
    },
    {
      "anonymous": false,
      "inputs": [
        {
          "indexed": true,
          "internalType": "uint256",
          "name": "itemId",
          "type": "uint256"
        },
        {
          "indexed": true,
          "internalType": "address",
          "name": "nftContract",
          "type": "address"
        },
        {
          "indexed": true,
          "internalType": "uint256",
          "name": "tokenId",
          "type": "uint256"
        },
        {
          "indexed": false,
          "internalType": "address",
          "name": "seller",
          "type": "address"
        },
        {
          "indexed": false,
          "internalType": "address",
          "name": "owner",
          "type": "address"
        },
        {
          "indexed": false,
          "internalType": "uint256",
          "name": "price",
          "type": "uint256"
        },
        {
          "indexed": false,
          "internalType": "bool",
          "name": "sold",
          "type": "bool"
        }
      ],
      "name": "MarketItemCreated",
      "type": "event"
    },
    {
      "anonymous": false,
      "inputs": [
        {
          "indexed": true,
          "internalType": "uint256",
          "name": "itemId",
          "type": "uint256"
        },
        {
          "indexed": true,
          "internalType": "address",
          "name": "nftContract",
          "type": "address"
        },
        {
          "indexed": true,
          "internalType": "uint256",
          "name": "tokenId",
          "type": "uint256"
        },
        {
          "indexed": false,
          "internalType": "address",
          "name": "seller",
          "type": "address"
        },
        {
          "indexed": false,
          "internalType": "address",
          "name": "owner",
          "type": "address"
        },
        {
          "indexed": false,
          "internalType": "uint256",
          "name": "price",
          "type": "uint256"
        },
        {
          "indexed": false,
          "internalType": "bool",
          "name": "sold",
          "type": "bool"
        }
      ],
      "name": "MarketItemSold",
      "type": "event"
    },
    {
      "anonymous": false,
      "inputs": [
        {
          "indexed": true,
          "internalType": "address",
          "name": "previousOwner",
          "type": "address"
        },
        {
          "indexed": true,
          "internalType": "address",
          "name": "newOwner",
          "type": "address"
        }
      ],
      "name": "OwnershipTransferred",
      "type": "event"
    },
    {
      "anonymous": false,
      "inputs": [
        {
          "indexed": true,
          "internalType": "address",
          "name": "implementation",
          "type": "address"
        }
      ],
      "name": "Upgraded",
      "type": "event"
    },
    {
      "anonymous": false,
      "inputs": [
        {
          "indexed": false,
          "internalType": "uint256",
          "name": "value",
          "type": "uint256"
        }
      ],
      "name": "ValueChanged",
      "type": "event"
    },
    {
      "inputs": [
        {
          "internalType": "address",
          "name": "nftContract",
          "type": "address"
        },
        {
          "internalType": "uint256",
          "name": "tokenId",
          "type": "uint256"
        },
        {
          "internalType": "uint256",
          "name": "price",
          "type": "uint256"
        }
      ],
      "name": "createMarketItem",
      "outputs": [],
      "stateMutability": "payable",
      "type": "function"
    },
    {
      "inputs": [
        {
          "internalType": "address",
          "name": "nftContract",
          "type": "address"
        },
        {
          "internalType": "uint256",
          "name": "itemId",
          "type": "uint256"
        }
      ],
      "name": "createMarketSale",
      "outputs": [],
      "stateMutability": "payable",
      "type": "function"
    },
    {
      "inputs": [],
      "name": "fetchItemsCreated",
      "outputs": [
        {
          "components": [
            {
              "internalType": "uint256",
              "name": "itemId",
              "type": "uint256"
            },
            {
              "internalType": "address",
              "name": "nftContract",
              "type": "address"
            },
            {
              "internalType": "uint256",
              "name": "tokenId",
              "type": "uint256"
            },
            {
              "internalType": "address payable",
              "name": "seller",
              "type": "address"
            },
            {
              "internalType": "address payable",
              "name": "owner",
              "type": "address"
            },
            {
              "internalType": "uint256",
              "name": "price",
              "type": "uint256"
            },
            {
              "internalType": "bool",
              "name": "sold",
              "type": "bool"
            }
          ],
          "internalType": "struct NFTMarket.MarketItem[]",
          "name": "",
          "type": "tuple[]"
        }
      ],
      "stateMutability": "view",
      "type": "function"
    },
    {
      "inputs": [],
      "name": "fetchMarketItems",
      "outputs": [
        {
          "components": [
            {
              "internalType": "uint256",
              "name": "itemId",
              "type": "uint256"
            },
            {
              "internalType": "address",
              "name": "nftContract",
              "type": "address"
            },
            {
              "internalType": "uint256",
              "name": "tokenId",
              "type": "uint256"
            },
            {
              "internalType": "address payable",
              "name": "seller",
              "type": "address"
            },
            {
              "internalType": "address payable",
              "name": "owner",
              "type": "address"
            },
            {
              "internalType": "uint256",
              "name": "price",
              "type": "uint256"
            },
            {
              "internalType": "bool",
              "name": "sold",
              "type": "bool"
            }
          ],
          "internalType": "struct NFTMarket.MarketItem[]",
          "name": "",
          "type": "tuple[]"
        }
      ],
      "stateMutability": "view",
      "type": "function"
    },
    {
      "inputs": [],
      "name": "fetchMyNFTs",
      "outputs": [
        {
          "components": [
            {
              "internalType": "uint256",
              "name": "itemId",
              "type": "uint256"
            },
            {
              "internalType": "address",
              "name": "nftContract",
              "type": "address"
            },
            {
              "internalType": "uint256",
              "name": "tokenId",
              "type": "uint256"
            },
            {
              "internalType": "address payable",
              "name": "seller",
              "type": "address"
            },
            {
              "internalType": "address payable",
              "name": "owner",
              "type": "address"
            },
            {
              "internalType": "uint256",
              "name": "price",
              "type": "uint256"
            },
            {
              "internalType": "bool",
              "name": "sold",
              "type": "bool"
            }
          ],
          "internalType": "struct NFTMarket.MarketItem[]",
          "name": "",
          "type": "tuple[]"
        }
      ],
      "stateMutability": "view",
      "type": "function"
    },
    {
      "inputs": [],
      "name": "getListingPrice",
      "outputs": [
        {
          "internalType": "uint256",
          "name": "",
          "type": "uint256"
        }
      ],
      "stateMutability": "view",
      "type": "function"
    },
    {
      "inputs": [],
      "name": "incrementListingPrice",
      "outputs": [],
      "stateMutability": "nonpayable",
      "type": "function"
    },
    {
      "inputs": [],
      "name": "initialize",
      "outputs": [],
      "stateMutability": "nonpayable",
      "type": "function"
    },
    {
      "inputs": [],
      "name": "owner",
      "outputs": [
        {
          "internalType": "address",
          "name": "",
          "type": "address"
        }
      ],
      "stateMutability": "view",
      "type": "function"
    },
    {
      "inputs": [],
      "name": "renounceOwnership",
      "outputs": [],
      "stateMutability": "nonpayable",
      "type": "function"
    },
    {
      "inputs": [
        {
          "internalType": "address",
          "name": "newOwner",
          "type": "address"
        }
      ],
      "name": "transferOwnership",
      "outputs": [],
      "stateMutability": "nonpayable",
      "type": "function"
    },
    {
      "inputs": [
        {
          "internalType": "address",
          "name": "newImplementation",
          "type": "address"
        }
      ],
      "name": "upgradeTo",
      "outputs": [],
      "stateMutability": "nonpayable",
      "type": "function"
    },
    {
      "inputs": [
        {
          "internalType": "address",
          "name": "newImplementation",
          "type": "address"
        },
        {
          "internalType": "bytes",
          "name": "data",
          "type": "bytes"
        }
      ],
      "name": "upgradeToAndCall",
      "outputs": [],
      "stateMutability": "payable",
      "type": "function"
    }
  ],
  "bytecode": "0x60a06040523060601b6080523480156200001857600080fd5b50600054610100900460ff16620000365760005460ff161562000040565b62000040620000e5565b620000a85760405162461bcd60e51b815260206004820152602e60248201527f496e697469616c697a61626c653a20636f6e747261637420697320616c72656160448201526d191e481a5b9a5d1a585b1a5e995960921b606482015260840160405180910390fd5b600054610100900460ff16158015620000cb576000805461ffff19166101011790555b8015620000de576000805461ff00191690555b5062000109565b6000620000fd306200010360201b62000f8a1760201c565b15905090565b3b151590565b60805160601c6118e26200013d600039600081816105b7015281816106000152818161068901526106c901526118e26000f3fe6080604052600436106100c25760003560e01c8063715018a61161007f578063bc91133911610059578063bc911339146101bf578063c23b139e146101d4578063f064c32e146101e7578063f2fde38b146101fc57600080fd5b8063715018a61461016d5780638129fc1c146101825780638da5cb5b1461019757600080fd5b80630f08efe0146100c757806312e85585146100f2578063202e3740146101105780633659cfe6146101255780634f1ef2861461014757806358eb2df51461015a575b600080fd5b3480156100d357600080fd5b506100dc61021c565b6040516100e99190611600565b60405180910390f35b3480156100fe57600080fd5b5060fd546040519081526020016100e9565b34801561011c57600080fd5b506100dc6103c5565b34801561013157600080fd5b506101456101403660046114b2565b6105ac565b005b6101456101553660046114cc565b61067e565b6101456101683660046115b2565b610738565b34801561017957600080fd5b506101456109cf565b34801561018e57600080fd5b50610145610a05565b3480156101a357600080fd5b5060c9546040516001600160a01b0390911681526020016100e9565b3480156101cb57600080fd5b50610145610ad8565b6101456101e2366004611589565b610b20565b3480156101f357600080fd5b506100dc610d0b565b34801561020857600080fd5b506101456102173660046114b2565b610ef2565b6060600061022960fb5490565b9050600061023660fc5490565b60fb5461024391906117f7565b90506000808267ffffffffffffffff81111561026f57634e487b7160e01b600052604160045260246000fd5b6040519080825280602002602001820160405280156102a857816020015b61029561145a565b81526020019060019003908161028d5790505b50905060005b848110156103bc57600060fe816102c68460016117df565b81526020810191909152604001600020600401546001600160a01b031614156103aa5760006102f68260016117df565b600081815260fe6020908152604091829020825160e0810184528154815260018201546001600160a01b039081169382019390935260028201549381019390935260038101548216606084015260048101549091166080830152600581015460a0830152600681015460ff16151560c083015285519293509185908790811061038f57634e487b7160e01b600052603260045260246000fd5b60209081029190910101526103a56001866117df565b945050505b806103b48161183e565b9150506102ae565b50949350505050565b606060006103d260fb5490565b905060008060005b83811015610435573360fe60006103f28460016117df565b81526020810191909152604001600020600401546001600160a01b03161415610423576104206001846117df565b92505b8061042d8161183e565b9150506103da565b5060008267ffffffffffffffff81111561045f57634e487b7160e01b600052604160045260246000fd5b60405190808252806020026020018201604052801561049857816020015b61048561145a565b81526020019060019003908161047d5790505b50905060005b848110156103bc573360fe60006104b68460016117df565b81526020810191909152604001600020600401546001600160a01b0316141561059a5760006104e68260016117df565b600081815260fe6020908152604091829020825160e0810184528154815260018201546001600160a01b039081169382019390935260028201549381019390935260038101548216606084015260048101549091166080830152600581015460a0830152600681015460ff16151560c083015285519293509185908790811061057f57634e487b7160e01b600052603260045260246000fd5b60209081029190910101526105956001866117df565b945050505b806105a48161183e565b91505061049e565b306001600160a01b037f00000000000000000000000000000000000000000000000000000000000000001614156105fe5760405162461bcd60e51b81526004016105f5906116c7565b60405180910390fd5b7f00000000000000000000000000000000000000000000000000000000000000006001600160a01b0316610630610f90565b6001600160a01b0316146106565760405162461bcd60e51b81526004016105f590611713565b61065f81610fbe565b6040805160008082526020820190925261067b91839190610fe8565b50565b306001600160a01b037f00000000000000000000000000000000000000000000000000000000000000001614156106c75760405162461bcd60e51b81526004016105f5906116c7565b7f00000000000000000000000000000000000000000000000000000000000000006001600160a01b03166106f9610f90565b6001600160a01b03161461071f5760405162461bcd60e51b81526004016105f590611713565b61072882610fbe565b61073482826001610fe8565b5050565b6002600154141561078b5760405162461bcd60e51b815260206004820152601f60248201527f5265656e7472616e637947756172643a207265656e7472616e742063616c6c0060448201526064016105f5565b6002600155806107dd5760405162461bcd60e51b815260206004820152601c60248201527f5072696365206d757374206265206174206c656173742031207765690000000060448201526064016105f5565b60fd54341461083a5760405162461bcd60e51b8152602060048201526024808201527f5072696365206d75737420626520657175616c20746f206c697374696e6720706044820152637269636560e01b60648201526084016105f5565b61084860fb80546001019055565b600061085360fb5490565b6040805160e0810182528281526001600160a01b0387811660208084018281528486018a8152336060870181815260006080890181815260a08a018e815260c08b018381528d845260fe909852918b902099518a55945160018a018054918a166001600160a01b0319928316179055935160028a015590516003890180549189169185169190911790559251600480890180549290981691909316179095559051600586015590516006909401805494151560ff199095169490941790935592516323b872dd60e01b81529182015230602482015260448101869052919250906323b872dd90606401600060405180830381600087803b15801561095657600080fd5b505af115801561096a573d6000803e3d6000fd5b505060408051338152600060208201819052818301879052606082015290518693506001600160a01b038816925084917f045dfa01dcba2b36aba1d3dc4a874f4b0c5d2fbeb8d2c4b34a7d88c8d8f929d1919081900360800190a45050600180555050565b60c9546001600160a01b031633146109f95760405162461bcd60e51b81526004016105f59061175f565b610a036000611133565b565b600054610100900460ff16610a205760005460ff1615610a24565b303b155b610a875760405162461bcd60e51b815260206004820152602e60248201527f496e697469616c697a61626c653a20636f6e747261637420697320616c72656160448201526d191e481a5b9a5d1a585b1a5e995960921b60648201526084016105f5565b600054610100900460ff16158015610aa9576000805461ffff19166101011790555b610ab1611185565b610ab96111bc565b6611c37937e0800060fd55801561067b576000805461ff001916905550565b60fd54610ae69060016117df565b60fd8190556040519081527f93fe6d397c74fdf1402a8b72e47b68512f0510d7b98a4bc4cbdf6ac7108b3c599060200160405180910390a1565b60026001541415610b735760405162461bcd60e51b815260206004820152601f60248201527f5265656e7472616e637947756172643a207265656e7472616e742063616c6c0060448201526064016105f5565b60026001819055600082815260fe60205260408082206005810154938101546003909101549151909234926001600160a01b031691839181818185875af1925050503d8060008114610be1576040519150601f19603f3d011682016040523d82523d6000602084013e610be6565b606091505b50506040516323b872dd60e01b8152306004820152336024820152604481018490526001600160a01b03871691506323b872dd90606401600060405180830381600087803b158015610c3757600080fd5b505af1158015610c4b573d6000803e3d6000fd5b505050600085815260fe602052604090206004810180546001600160a01b03191633179055600601805460ff1916600117905550610c8d60fc80546001019055565b6000610c9860fc5490565b60fb54610ca591906117f7565b60408051600081523360208201529081018690526001606082015290915083906001600160a01b0388169087907ffeb04e399f6ba62d926a65372cbb5f11e3c7a9ff05e62948769d2ee5d5335b849060800160405180910390a450506001805550505050565b60606000610d1860fb5490565b905060008060005b83811015610d7b573360fe6000610d388460016117df565b81526020810191909152604001600020600301546001600160a01b03161415610d6957610d666001846117df565b92505b80610d738161183e565b915050610d20565b5060008267ffffffffffffffff811115610da557634e487b7160e01b600052604160045260246000fd5b604051908082528060200260200182016040528015610dde57816020015b610dcb61145a565b815260200190600190039081610dc35790505b50905060005b848110156103bc573360fe6000610dfc8460016117df565b81526020810191909152604001600020600301546001600160a01b03161415610ee0576000610e2c8260016117df565b600081815260fe6020908152604091829020825160e0810184528154815260018201546001600160a01b039081169382019390935260028201549381019390935260038101548216606084015260048101549091166080830152600581015460a0830152600681015460ff16151560c0830152855192935091859087908110610ec557634e487b7160e01b600052603260045260246000fd5b6020908102919091010152610edb6001866117df565b945050505b80610eea8161183e565b915050610de4565b60c9546001600160a01b03163314610f1c5760405162461bcd60e51b81526004016105f59061175f565b6001600160a01b038116610f815760405162461bcd60e51b815260206004820152602660248201527f4f776e61626c653a206e6577206f776e657220697320746865207a65726f206160448201526564647265737360d01b60648201526084016105f5565b61067b81611133565b3b151590565b7f360894a13ba1a3210667c828492db98dca3e2076cc3735a920a3ca505d382bbc546001600160a01b031690565b60c9546001600160a01b0316331461067b5760405162461bcd60e51b81526004016105f59061175f565b6000610ff2610f90565b9050610ffd846111f3565b60008351118061100a5750815b1561101b576110198484611298565b505b7f4910fdfa16fed3260ed0e7147f7cc6da11a60208b5b9406d12a635614ffd9143805460ff1661112c57805460ff191660011781556040516001600160a01b038316602482015261109a90869060440160408051601f198184030181529190526020810180516001600160e01b0316631b2ce7f360e11b179052611298565b50805460ff191681556110ab610f90565b6001600160a01b0316826001600160a01b0316146111235760405162461bcd60e51b815260206004820152602f60248201527f45524331393637557067726164653a207570677261646520627265616b73206660448201526e75727468657220757067726164657360881b60648201526084016105f5565b61112c85611383565b5050505050565b60c980546001600160a01b038381166001600160a01b0319831681179093556040519116919082907f8be0079c531659141344cd1fd0a4f28419497f9722a3daafe3b4186f6b6457e090600090a35050565b600054610100900460ff166111ac5760405162461bcd60e51b81526004016105f590611794565b6111b46113c3565b610a036113ea565b600054610100900460ff166111e35760405162461bcd60e51b81526004016105f590611794565b6111eb6113c3565b610a036113c3565b803b6112575760405162461bcd60e51b815260206004820152602d60248201527f455243313936373a206e657720696d706c656d656e746174696f6e206973206e60448201526c1bdd08184818dbdb9d1c9858dd609a1b60648201526084016105f5565b7f360894a13ba1a3210667c828492db98dca3e2076cc3735a920a3ca505d382bbc80546001600160a01b0319166001600160a01b0392909216919091179055565b6060823b6112f75760405162461bcd60e51b815260206004820152602660248201527f416464726573733a2064656c65676174652063616c6c20746f206e6f6e2d636f6044820152651b9d1c9858dd60d21b60648201526084016105f5565b600080846001600160a01b03168460405161131291906115e4565b600060405180830381855af49150503d806000811461134d576040519150601f19603f3d011682016040523d82523d6000602084013e611352565b606091505b509150915061137a82826040518060600160405280602781526020016118866027913961141a565b95945050505050565b61138c816111f3565b6040516001600160a01b038216907fbc7cd75a20ee27fd9adebab32041f755214dbc6bffa90cc0225b39da2e5c2d3b90600090a250565b600054610100900460ff16610a035760405162461bcd60e51b81526004016105f590611794565b600054610100900460ff166114115760405162461bcd60e51b81526004016105f590611794565b610a0333611133565b60608315611429575081611453565b8251156114395782518084602001fd5b8160405162461bcd60e51b81526004016105f59190611694565b9392505050565b6040805160e081018252600080825260208201819052918101829052606081018290526080810182905260a0810182905260c081019190915290565b80356001600160a01b03811681146114ad57600080fd5b919050565b6000602082840312156114c3578081fd5b61145382611496565b600080604083850312156114de578081fd5b6114e783611496565b9150602083013567ffffffffffffffff80821115611503578283fd5b818501915085601f830112611516578283fd5b8135818111156115285761152861186f565b604051601f8201601f19908116603f011681019083821181831017156115505761155061186f565b81604052828152886020848701011115611568578586fd5b82602086016020830137856020848301015280955050505050509250929050565b6000806040838503121561159b578182fd5b6115a483611496565b946020939093013593505050565b6000806000606084860312156115c6578081fd5b6115cf84611496565b95602085013595506040909401359392505050565b600082516115f681846020870161180e565b9190910192915050565b602080825282518282018190526000919060409081850190868401855b8281101561168757815180518552868101516001600160a01b039081168887015286820151878701526060808301518216908701526080808301519091169086015260a0808201519086015260c09081015115159085015260e0909301929085019060010161161d565b5091979650505050505050565b60208152600082518060208401526116b381604085016020870161180e565b601f01601f19169190910160400192915050565b6020808252602c908201527f46756e6374696f6e206d7573742062652063616c6c6564207468726f7567682060408201526b19195b1959d85d1958d85b1b60a21b606082015260800190565b6020808252602c908201527f46756e6374696f6e206d7573742062652063616c6c6564207468726f7567682060408201526b6163746976652070726f787960a01b606082015260800190565b6020808252818101527f4f776e61626c653a2063616c6c6572206973206e6f7420746865206f776e6572604082015260600190565b6020808252602b908201527f496e697469616c697a61626c653a20636f6e7472616374206973206e6f74206960408201526a6e697469616c697a696e6760a81b606082015260800190565b600082198211156117f2576117f2611859565b500190565b60008282101561180957611809611859565b500390565b60005b83811015611829578181015183820152602001611811565b83811115611838576000848401525b50505050565b600060001982141561185257611852611859565b5060010190565b634e487b7160e01b600052601160045260246000fd5b634e487b7160e01b600052604160045260246000fdfe416464726573733a206c6f772d6c6576656c2064656c65676174652063616c6c206661696c6564a2646970667358221220585081cd451994559e33bd65b49ba208d57f8af76b8452cdc5b698db72d0a86f64736f6c63430008040033",
  "linkReferences": {},
  "deployedLinkReferences": {}
}