{
  "_format": "hh-sol-artifact-1",
  "contractName": "Game",
  "sourceName": "contracts/Game.sol",
  "abi": [
    {
      "inputs": [],
      "stateMutability": "nonpayable",
      "type": "constructor"
    },
    {
      "anonymous": false,
      "inputs": [
        {
          "indexed": true,
          "internalType": "uint256",
          "name": "itemId",
          "type": "uint256"
        },
        {
          "indexed": true,
          "internalType": "address",
          "name": "nftContract",
          "type": "address"
        },
        {
          "indexed": true,
          "internalType": "uint256",
          "name": "tokenId",
          "type": "uint256"
        },
        {
          "indexed": false,
          "internalType": "address",
          "name": "seller",
          "type": "address"
        },
        {
          "indexed": false,
          "internalType": "address",
          "name": "owner",
          "type": "address"
        },
        {
          "indexed": false,
          "internalType": "uint256",
          "name": "price",
          "type": "uint256"
        },
        {
          "indexed": false,
          "internalType": "bool",
          "name": "sold",
          "type": "bool"
        },
        {
          "indexed": false,
          "internalType": "bool",
          "name": "auction",
          "type": "bool"
        }
      ],
      "name": "MarketItemCreated",
      "type": "event"
    },
    {
      "inputs": [
        {
          "internalType": "address",
          "name": "nftContract",
          "type": "address"
        },
        {
          "internalType": "uint256",
          "name": "itemId",
          "type": "uint256"
        }
      ],
      "name": "createAuction",
      "outputs": [],
      "stateMutability": "payable",
      "type": "function"
    },
    {
      "inputs": [
        {
          "internalType": "uint256",
          "name": "price",
          "type": "uint256"
        }
      ],
      "name": "createBid",
      "outputs": [],
      "stateMutability": "payable",
      "type": "function"
    },
    {
      "inputs": [
        {
          "internalType": "address",
          "name": "nftContract",
          "type": "address"
        },
        {
          "internalType": "uint256",
          "name": "tokenId",
          "type": "uint256"
        },
        {
          "internalType": "uint256",
          "name": "price",
          "type": "uint256"
        }
      ],
      "name": "createMarketItem",
      "outputs": [],
      "stateMutability": "payable",
      "type": "function"
    },
    {
      "inputs": [
        {
          "internalType": "address",
          "name": "nftContract",
          "type": "address"
        },
        {
          "internalType": "uint256",
          "name": "itemId",
          "type": "uint256"
        }
      ],
      "name": "createMarketSale",
      "outputs": [],
      "stateMutability": "payable",
      "type": "function"
    },
    {
      "inputs": [],
      "name": "duration",
      "outputs": [
        {
          "internalType": "uint256",
          "name": "",
          "type": "uint256"
        }
      ],
      "stateMutability": "view",
      "type": "function"
    },
    {
      "inputs": [],
      "name": "fetchItemsCreated",
      "outputs": [
        {
          "components": [
            {
              "internalType": "uint256",
              "name": "itemId",
              "type": "uint256"
            },
            {
              "internalType": "address",
              "name": "nftContract",
              "type": "address"
            },
            {
              "internalType": "uint256",
              "name": "tokenId",
              "type": "uint256"
            },
            {
              "internalType": "address payable",
              "name": "seller",
              "type": "address"
            },
            {
              "internalType": "address payable",
              "name": "owner",
              "type": "address"
            },
            {
              "internalType": "uint256",
              "name": "price",
              "type": "uint256"
            },
            {
              "internalType": "bool",
              "name": "sold",
              "type": "bool"
            },
            {
              "internalType": "bool",
              "name": "auction",
              "type": "bool"
            },
            {
              "internalType": "uint256",
              "name": "startTime",
              "type": "uint256"
            },
            {
              "internalType": "uint256",
              "name": "endTime",
              "type": "uint256"
            }
          ],
          "internalType": "struct Game.MarketItem[]",
          "name": "",
          "type": "tuple[]"
        }
      ],
      "stateMutability": "view",
      "type": "function"
    },
    {
      "inputs": [],
      "name": "fetchMarketItems",
      "outputs": [
        {
          "components": [
            {
              "internalType": "uint256",
              "name": "itemId",
              "type": "uint256"
            },
            {
              "internalType": "address",
              "name": "nftContract",
              "type": "address"
            },
            {
              "internalType": "uint256",
              "name": "tokenId",
              "type": "uint256"
            },
            {
              "internalType": "address payable",
              "name": "seller",
              "type": "address"
            },
            {
              "internalType": "address payable",
              "name": "owner",
              "type": "address"
            },
            {
              "internalType": "uint256",
              "name": "price",
              "type": "uint256"
            },
            {
              "internalType": "bool",
              "name": "sold",
              "type": "bool"
            },
            {
              "internalType": "bool",
              "name": "auction",
              "type": "bool"
            },
            {
              "internalType": "uint256",
              "name": "startTime",
              "type": "uint256"
            },
            {
              "internalType": "uint256",
              "name": "endTime",
              "type": "uint256"
            }
          ],
          "internalType": "struct Game.MarketItem[]",
          "name": "",
          "type": "tuple[]"
        }
      ],
      "stateMutability": "view",
      "type": "function"
    },
    {
      "inputs": [],
      "name": "fetchMyNFTs",
      "outputs": [
        {
          "components": [
            {
              "internalType": "uint256",
              "name": "itemId",
              "type": "uint256"
            },
            {
              "internalType": "address",
              "name": "nftContract",
              "type": "address"
            },
            {
              "internalType": "uint256",
              "name": "tokenId",
              "type": "uint256"
            },
            {
              "internalType": "address payable",
              "name": "seller",
              "type": "address"
            },
            {
              "internalType": "address payable",
              "name": "owner",
              "type": "address"
            },
            {
              "internalType": "uint256",
              "name": "price",
              "type": "uint256"
            },
            {
              "internalType": "bool",
              "name": "sold",
              "type": "bool"
            },
            {
              "internalType": "bool",
              "name": "auction",
              "type": "bool"
            },
            {
              "internalType": "uint256",
              "name": "startTime",
              "type": "uint256"
            },
            {
              "internalType": "uint256",
              "name": "endTime",
              "type": "uint256"
            }
          ],
          "internalType": "struct Game.MarketItem[]",
          "name": "",
          "type": "tuple[]"
        }
      ],
      "stateMutability": "view",
      "type": "function"
    },
    {
      "inputs": [],
      "name": "getListingPrice",
      "outputs": [
        {
          "internalType": "uint256",
          "name": "",
          "type": "uint256"
        }
      ],
      "stateMutability": "view",
      "type": "function"
    },
    {
      "inputs": [],
      "name": "makeBet",
      "outputs": [],
      "stateMutability": "payable",
      "type": "function"
    },
    {
      "inputs": [
        {
          "internalType": "address",
          "name": "payTo",
          "type": "address"
        },
        {
          "internalType": "uint256",
          "name": "payAmount",
          "type": "uint256"
        }
      ],
      "name": "payout",
      "outputs": [],
      "stateMutability": "payable",
      "type": "function"
    },
    {
      "inputs": [
        {
          "internalType": "address",
          "name": "lastBidder",
          "type": "address"
        },
        {
          "internalType": "uint256",
          "name": "lastbid",
          "type": "uint256"
        }
      ],
      "name": "updateBid",
      "outputs": [],
      "stateMutability": "payable",
      "type": "function"
    }
  ],
  "bytecode": "0x60806040526658d15e176280006004556201518060055534801561002257600080fd5b506001600055600380546001600160a01b031916331790556113d0806100496000396000f3fe6080604052600436106100a75760003560e01c8063561e91a111610064578063561e91a11461014d57806358eb2df514610155578063659dd2b414610168578063c23b139e1461017b578063f064c32e1461018e578063f7e88298146101a357600080fd5b806305d6cf21146100ac5780630f08efe0146100c15780630fb5a6b4146100ec578063117de2fd1461011057806312e8558514610123578063202e374014610138575b600080fd5b6100bf6100ba36600461117b565b6101b6565b005b3480156100cd57600080fd5b506100d6610288565b6040516100e391906111ee565b60405180910390f35b3480156100f857600080fd5b5061010260055481565b6040519081526020016100e3565b6100bf61011e36600461117b565b610456565b34801561012f57600080fd5b50600454610102565b34801561014457600080fd5b506100d66104b4565b6100bf6106c0565b6100bf6101633660046111a4565b61074a565b6100bf6101763660046111d6565b610a9c565b6100bf61018936600461117b565b610c9f565b34801561019a57600080fd5b506100d6610e33565b6100bf6101b136600461117b565b61103f565b600260005414156101e25760405162461bcd60e51b81526004016101d990611303565b60405180910390fd5b60026000553481106102065760405162461bcd60e51b81526004016101d9906112a5565b6003546001600160a01b03166108fc61021f8334611352565b6040518115909202916000818181858888f19350505050158015610247573d6000803e3d6000fd5b506040516001600160a01b0383169082156108fc029083906000818181858888f1935050505015801561027e573d6000803e3d6000fd5b5050600160005550565b6060600061029560015490565b905060006102a260025490565b6001546102af9190611352565b90506000808267ffffffffffffffff8111156102db57634e487b7160e01b600052604160045260246000fd5b60405190808252806020026020018201604052801561031457816020015b6103016110ed565b8152602001906001900390816102f95790505b50905060005b8481101561044d57600060068161033284600161133a565b81526020810191909152604001600020600401546001600160a01b0316141561043b57600061036282600161133a565b6000818152600660208181526040928390208351610140810185528154815260018201546001600160a01b039081169382019390935260028201549481019490945260038101548216606085015260048101549091166080840152600581015460a08401529081015460ff808216151560c08501526101009182900416151560e0840152600782015490830152600881015461012083015285519293509185908790811061042057634e487b7160e01b600052603260045260246000fd5b602090810291909101015261043660018661133a565b945050505b8061044581611369565b91505061031a565b50949350505050565b600260005414156104795760405162461bcd60e51b81526004016101d990611303565b600260009081556040516001600160a01b0384169183156108fc02918491818181858888f1935050505015801561027e573d6000803e3d6000fd5b606060006104c160015490565b905060008060005b838110156105245733600660006104e184600161133a565b81526020810191909152604001600020600401546001600160a01b031614156105125761050f60018461133a565b92505b8061051c81611369565b9150506104c9565b5060008267ffffffffffffffff81111561054e57634e487b7160e01b600052604160045260246000fd5b60405190808252806020026020018201604052801561058757816020015b6105746110ed565b81526020019060019003908161056c5790505b50905060005b8481101561044d5733600660006105a584600161133a565b81526020810191909152604001600020600401546001600160a01b031614156106ae5760006105d582600161133a565b6000818152600660208181526040928390208351610140810185528154815260018201546001600160a01b039081169382019390935260028201549481019490945260038101548216606085015260048101549091166080840152600581015460a08401529081015460ff808216151560c08501526101009182900416151560e0840152600782015490830152600881015461012083015285519293509185908790811061069357634e487b7160e01b600052603260045260246000fd5b60209081029190910101526106a960018661133a565b945050505b806106b881611369565b91505061058d565b600260005414156106e35760405162461bcd60e51b81526004016101d990611303565b600260005560045434116107095760405162461bcd60e51b81526004016101d9906112a5565b6003546040516001600160a01b03909116903480156108fc02916000818181858888f19350505050158015610742573d6000803e3d6000fd5b506001600055565b6002600054141561076d5760405162461bcd60e51b81526004016101d990611303565b6002600055806107bf5760405162461bcd60e51b815260206004820152601c60248201527f5072696365206d757374206265206174206c656173742031207765690000000060448201526064016101d9565b600454341461081c5760405162461bcd60e51b8152602060048201526024808201527f5072696365206d75737420626520657175616c20746f206c697374696e6720706044820152637269636560e01b60648201526084016101d9565b61082a600180546001019055565b600061083560015490565b9050604051806101400160405280828152602001856001600160a01b03168152602001848152602001336001600160a01b0316815260200160006001600160a01b03168152602001838152602001600015158152602001600015158152602001600081526020016000815250600660008381526020019081526020016000206000820151816000015560208201518160010160006101000a8154816001600160a01b0302191690836001600160a01b031602179055506040820151816002015560608201518160030160006101000a8154816001600160a01b0302191690836001600160a01b0316021790555060808201518160040160006101000a8154816001600160a01b0302191690836001600160a01b0316021790555060a0820151816005015560c08201518160060160006101000a81548160ff02191690831515021790555060e08201518160060160016101000a81548160ff02191690831515021790555061010082015181600701556101208201518160080155905050836001600160a01b03166323b872dd3330866040518463ffffffff1660e01b8152600401610a01939291906001600160a01b039384168152919092166020820152604081019190915260600190565b600060405180830381600087803b158015610a1b57600080fd5b505af1158015610a2f573d6000803e3d6000fd5b50506040805133815260006020820181905281830187905260608201819052608082015290518693506001600160a01b038816925084917fc99151f4453170a67bc7441775fde1a3bc3220c06645df1121e703aab5e7da5d919081900360a00190a4505060016000555050565b60026000541415610abf5760405162461bcd60e51b81526004016101d990611303565b600260005580610b115760405162461bcd60e51b815260206004820152601c60248201527f5072696365206d757374206265206174206c656173742031207765690000000060448201526064016101d9565b610b1f600180546001019055565b6000610b2a60015490565b60408051610140810182528281526000602080830182815283850183815233606086018181526080870186815260a088018c815260c0890188815260e08a01898152610100808c018b81526101208d018c81528f8d5260069b8c90528e8d209d518e55995160018e0180546001600160a01b039283166001600160a01b031991821617909155995160028f0155965160038e018054918916918b16919091179055945160048d01805491909716981697909717909455905160058a01555195880180549251151590940261ff00199615159690961661ffff199092169190911794909417909155915160078501555160089093019290925591519293509091829184917fc99151f4453170a67bc7441775fde1a3bc3220c06645df1121e703aab5e7da5d91610c8e9185908990829081906001600160a01b039586168152939094166020840152604083019190915215156060820152901515608082015260a00190565b60405180910390a450506001600055565b60026000541415610cc25760405162461bcd60e51b81526004016101d990611303565b600260008181558281526006602052604090206005810154910154348214610cfc5760405162461bcd60e51b81526004016101d9906112a5565b6000838152600660205260408082206003015490516001600160a01b03909116913480156108fc02929091818181858888f19350505050158015610d44573d6000803e3d6000fd5b506040516323b872dd60e01b8152306004820152336024820152604481018290526001600160a01b038516906323b872dd90606401600060405180830381600087803b158015610d9357600080fd5b505af1158015610da7573d6000803e3d6000fd5b50505060008481526006602081905260409091206004810180546001600160a01b0319163317905501805461ffff1916600117905550610deb600280546001019055565b6003546004546040516001600160a01b039092169181156108fc0291906000818181858888f19350505050158015610e27573d6000803e3d6000fd5b50506001600055505050565b60606000610e4060015490565b905060008060005b83811015610ea3573360066000610e6084600161133a565b81526020810191909152604001600020600301546001600160a01b03161415610e9157610e8e60018461133a565b92505b80610e9b81611369565b915050610e48565b5060008267ffffffffffffffff811115610ecd57634e487b7160e01b600052604160045260246000fd5b604051908082528060200260200182016040528015610f0657816020015b610ef36110ed565b815260200190600190039081610eeb5790505b50905060005b8481101561044d573360066000610f2484600161133a565b81526020810191909152604001600020600301546001600160a01b0316141561102d576000610f5482600161133a565b6000818152600660208181526040928390208351610140810185528154815260018201546001600160a01b039081169382019390935260028201549481019490945260038101548216606085015260048101549091166080840152600581015460a08401529081015460ff808216151560c08501526101009182900416151560e0840152600782015490830152600881015461012083015285519293509185908790811061101257634e487b7160e01b600052603260045260246000fd5b602090810291909101015261102860018661133a565b945050505b8061103781611369565b915050610f0c565b600260005414156110625760405162461bcd60e51b81526004016101d990611303565b60026000818155828152600660205260409020600581015491015434821461109c5760405162461bcd60e51b81526004016101d9906112a5565b6000838152600660208190526040909120908101805461ff0019166101001790554260079091018190556005546110d29161133a565b60009384526006602052604084206008015550506001905550565b6040518061014001604052806000815260200160006001600160a01b031681526020016000815260200160006001600160a01b0316815260200160006001600160a01b031681526020016000815260200160001515815260200160001515815260200160008152602001600081525090565b80356001600160a01b038116811461117657600080fd5b919050565b6000806040838503121561118d578182fd5b6111968361115f565b946020939093013593505050565b6000806000606084860312156111b8578081fd5b6111c18461115f565b95602085013595506040909401359392505050565b6000602082840312156111e7578081fd5b5035919050565b602080825282518282018190526000919060409081850190868401855b8281101561129857815180518552868101516001600160a01b039081168887015286820151878701526060808301518216908701526080808301519091169086015260a0808201519086015260c08082015115159086015260e08082015115159086015261010080820151908601526101209081015190850152610140909301929085019060010161120b565b5091979650505050505050565b602080825260409082018190527f506c65617365207375626d6974207468652061736b696e672070726963652069908201527f6e206f7264657220746f20636f6d706c65746520746865207075726368617365606082015260800190565b6020808252601f908201527f5265656e7472616e637947756172643a207265656e7472616e742063616c6c00604082015260600190565b6000821982111561134d5761134d611384565b500190565b60008282101561136457611364611384565b500390565b600060001982141561137d5761137d611384565b5060010190565b634e487b7160e01b600052601160045260246000fdfea264697066735822122099d2094c34003b8465d16270632d14931384784c12c3a1927bff49b7c5a8cd9664736f6c63430008040033",
  "linkReferences": {},
  "deployedLinkReferences": {}
}